{
  "_format": "hh-sol-artifact-1",
  "contractName": "SpaceCubes",
  "sourceName": "contracts/SpaceCubes.sol",
  "abi": [
    {
      "inputs": [
        {
          "internalType": "string",
          "name": "baseURI",
          "type": "string"
        }
      ],
      "stateMutability": "nonpayable",
      "type": "constructor"
    },
    {
      "anonymous": false,
      "inputs": [
        {
          "indexed": true,
          "internalType": "address",
          "name": "owner",
          "type": "address"
        },
        {
          "indexed": true,
          "internalType": "address",
          "name": "approved",
          "type": "address"
        },
        {
          "indexed": true,
          "internalType": "uint256",
          "name": "tokenId",
          "type": "uint256"
        }
      ],
      "name": "Approval",
      "type": "event"
    },
    {
      "anonymous": false,
      "inputs": [
        {
          "indexed": true,
          "internalType": "address",
          "name": "owner",
          "type": "address"
        },
        {
          "indexed": true,
          "internalType": "address",
          "name": "operator",
          "type": "address"
        },
        {
          "indexed": false,
          "internalType": "bool",
          "name": "approved",
          "type": "bool"
        }
      ],
      "name": "ApprovalForAll",
      "type": "event"
    },
    {
      "anonymous": false,
      "inputs": [
        {
          "indexed": true,
          "internalType": "address",
          "name": "previousOwner",
          "type": "address"
        },
        {
          "indexed": true,
          "internalType": "address",
          "name": "newOwner",
          "type": "address"
        }
      ],
      "name": "OwnershipTransferred",
      "type": "event"
    },
    {
      "anonymous": false,
      "inputs": [
        {
          "indexed": true,
          "internalType": "address",
          "name": "from",
          "type": "address"
        },
        {
          "indexed": true,
          "internalType": "address",
          "name": "to",
          "type": "address"
        },
        {
          "indexed": true,
          "internalType": "uint256",
          "name": "tokenId",
          "type": "uint256"
        }
      ],
      "name": "Transfer",
      "type": "event"
    },
    {
      "inputs": [],
      "name": "MAX_PER_MINT",
      "outputs": [
        {
          "internalType": "uint256",
          "name": "",
          "type": "uint256"
        }
      ],
      "stateMutability": "view",
      "type": "function"
    },
    {
      "inputs": [],
      "name": "MAX_SUPPLY",
      "outputs": [
        {
          "internalType": "uint256",
          "name": "",
          "type": "uint256"
        }
      ],
      "stateMutability": "view",
      "type": "function"
    },
    {
      "inputs": [],
      "name": "PRICE",
      "outputs": [
        {
          "internalType": "uint256",
          "name": "",
          "type": "uint256"
        }
      ],
      "stateMutability": "view",
      "type": "function"
    },
    {
      "inputs": [
        {
          "internalType": "address",
          "name": "to",
          "type": "address"
        },
        {
          "internalType": "uint256",
          "name": "tokenId",
          "type": "uint256"
        }
      ],
      "name": "approve",
      "outputs": [],
      "stateMutability": "nonpayable",
      "type": "function"
    },
    {
      "inputs": [
        {
          "internalType": "address",
          "name": "owner",
          "type": "address"
        }
      ],
      "name": "balanceOf",
      "outputs": [
        {
          "internalType": "uint256",
          "name": "",
          "type": "uint256"
        }
      ],
      "stateMutability": "view",
      "type": "function"
    },
    {
      "inputs": [],
      "name": "baseTokenURI",
      "outputs": [
        {
          "internalType": "string",
          "name": "",
          "type": "string"
        }
      ],
      "stateMutability": "view",
      "type": "function"
    },
    {
      "inputs": [
        {
          "internalType": "uint256",
          "name": "tokenId",
          "type": "uint256"
        }
      ],
      "name": "getApproved",
      "outputs": [
        {
          "internalType": "address",
          "name": "",
          "type": "address"
        }
      ],
      "stateMutability": "view",
      "type": "function"
    },
    {
      "inputs": [
        {
          "internalType": "uint256",
          "name": "_mintAmount",
          "type": "uint256"
        },
        {
          "internalType": "address",
          "name": "destination",
          "type": "address"
        }
      ],
      "name": "giftNFTs",
      "outputs": [],
      "stateMutability": "nonpayable",
      "type": "function"
    },
    {
      "inputs": [
        {
          "internalType": "address",
          "name": "owner",
          "type": "address"
        },
        {
          "internalType": "address",
          "name": "operator",
          "type": "address"
        }
      ],
      "name": "isApprovedForAll",
      "outputs": [
        {
          "internalType": "bool",
          "name": "",
          "type": "bool"
        }
      ],
      "stateMutability": "view",
      "type": "function"
    },
    {
      "inputs": [
        {
          "internalType": "address",
          "name": "_user",
          "type": "address"
        }
      ],
      "name": "isWhitelisted",
      "outputs": [
        {
          "internalType": "bool",
          "name": "",
          "type": "bool"
        }
      ],
      "stateMutability": "view",
      "type": "function"
    },
    {
      "inputs": [
        {
          "internalType": "uint256",
          "name": "_count",
          "type": "uint256"
        }
      ],
      "name": "mintNFTs",
      "outputs": [],
      "stateMutability": "payable",
      "type": "function"
    },
    {
      "inputs": [],
      "name": "name",
      "outputs": [
        {
          "internalType": "string",
          "name": "",
          "type": "string"
        }
      ],
      "stateMutability": "view",
      "type": "function"
    },
    {
      "inputs": [],
      "name": "owner",
      "outputs": [
        {
          "internalType": "address",
          "name": "",
          "type": "address"
        }
      ],
      "stateMutability": "view",
      "type": "function"
    },
    {
      "inputs": [
        {
          "internalType": "uint256",
          "name": "tokenId",
          "type": "uint256"
        }
      ],
      "name": "ownerOf",
      "outputs": [
        {
          "internalType": "address",
          "name": "",
          "type": "address"
        }
      ],
      "stateMutability": "view",
      "type": "function"
    },
    {
      "inputs": [],
      "name": "renounceOwnership",
      "outputs": [],
      "stateMutability": "nonpayable",
      "type": "function"
    },
    {
      "inputs": [
        {
          "internalType": "address",
          "name": "from",
          "type": "address"
        },
        {
          "internalType": "address",
          "name": "to",
          "type": "address"
        },
        {
          "internalType": "uint256",
          "name": "tokenId",
          "type": "uint256"
        }
      ],
      "name": "safeTransferFrom",
      "outputs": [],
      "stateMutability": "nonpayable",
      "type": "function"
    },
    {
      "inputs": [
        {
          "internalType": "address",
          "name": "from",
          "type": "address"
        },
        {
          "internalType": "address",
          "name": "to",
          "type": "address"
        },
        {
          "internalType": "uint256",
          "name": "tokenId",
          "type": "uint256"
        },
        {
          "internalType": "bytes",
          "name": "_data",
          "type": "bytes"
        }
      ],
      "name": "safeTransferFrom",
      "outputs": [],
      "stateMutability": "nonpayable",
      "type": "function"
    },
    {
      "inputs": [
        {
          "internalType": "address",
          "name": "operator",
          "type": "address"
        },
        {
          "internalType": "bool",
          "name": "approved",
          "type": "bool"
        }
      ],
      "name": "setApprovalForAll",
      "outputs": [],
      "stateMutability": "nonpayable",
      "type": "function"
    },
    {
      "inputs": [
        {
          "internalType": "string",
          "name": "_baseTokenURI",
          "type": "string"
        }
      ],
      "name": "setBaseURI",
      "outputs": [],
      "stateMutability": "nonpayable",
      "type": "function"
    },
    {
      "inputs": [
        {
          "internalType": "bytes4",
          "name": "interfaceId",
          "type": "bytes4"
        }
      ],
      "name": "supportsInterface",
      "outputs": [
        {
          "internalType": "bool",
          "name": "",
          "type": "bool"
        }
      ],
      "stateMutability": "view",
      "type": "function"
    },
    {
      "inputs": [],
      "name": "symbol",
      "outputs": [
        {
          "internalType": "string",
          "name": "",
          "type": "string"
        }
      ],
      "stateMutability": "view",
      "type": "function"
    },
    {
      "inputs": [
        {
          "internalType": "uint256",
          "name": "index",
          "type": "uint256"
        }
      ],
      "name": "tokenByIndex",
      "outputs": [
        {
          "internalType": "uint256",
          "name": "",
          "type": "uint256"
        }
      ],
      "stateMutability": "view",
      "type": "function"
    },
    {
      "inputs": [
        {
          "internalType": "address",
          "name": "owner",
          "type": "address"
        },
        {
          "internalType": "uint256",
          "name": "index",
          "type": "uint256"
        }
      ],
      "name": "tokenOfOwnerByIndex",
      "outputs": [
        {
          "internalType": "uint256",
          "name": "",
          "type": "uint256"
        }
      ],
      "stateMutability": "view",
      "type": "function"
    },
    {
      "inputs": [
        {
          "internalType": "uint256",
          "name": "tokenId",
          "type": "uint256"
        }
      ],
      "name": "tokenURI",
      "outputs": [
        {
          "internalType": "string",
          "name": "",
          "type": "string"
        }
      ],
      "stateMutability": "view",
      "type": "function"
    },
    {
      "inputs": [
        {
          "internalType": "address",
          "name": "_owner",
          "type": "address"
        }
      ],
      "name": "tokensOfOwner",
      "outputs": [
        {
          "internalType": "uint256[]",
          "name": "",
          "type": "uint256[]"
        }
      ],
      "stateMutability": "view",
      "type": "function"
    },
    {
      "inputs": [],
      "name": "totalSupply",
      "outputs": [
        {
          "internalType": "uint256",
          "name": "",
          "type": "uint256"
        }
      ],
      "stateMutability": "view",
      "type": "function"
    },
    {
      "inputs": [
        {
          "internalType": "address",
          "name": "from",
          "type": "address"
        },
        {
          "internalType": "address",
          "name": "to",
          "type": "address"
        },
        {
          "internalType": "uint256",
          "name": "tokenId",
          "type": "uint256"
        }
      ],
      "name": "transferFrom",
      "outputs": [],
      "stateMutability": "nonpayable",
      "type": "function"
    },
    {
      "inputs": [
        {
          "internalType": "address",
          "name": "newOwner",
          "type": "address"
        }
      ],
      "name": "transferOwnership",
      "outputs": [],
      "stateMutability": "nonpayable",
      "type": "function"
    },
    {
      "inputs": [
        {
          "internalType": "address[]",
          "name": "addresses",
          "type": "address[]"
        }
      ],
      "name": "whitelistUsers",
      "outputs": [],
      "stateMutability": "nonpayable",
      "type": "function"
    },
    {
      "inputs": [],
      "name": "withdraw",
      "outputs": [],
      "stateMutability": "payable",
      "type": "function"
    }
  ],
  "bytecode": "0x60806040523480156200001157600080fd5b5060405162004c2f38038062004c2f8339818101604052810190620000379190620003d4565b6040518060400160405280600a81526020017f53706163654375626573000000000000000000000000000000000000000000008152506040518060400160405280600481526020017f43554245000000000000000000000000000000000000000000000000000000008152508160009080519060200190620000bb929190620002b2565b508060019080519060200190620000d4929190620002b2565b505050620000f7620000eb6200010f60201b60201c565b6200011760201b60201c565b6200010881620001dd60201b60201c565b506200060c565b600033905090565b6000600a60009054906101000a900473ffffffffffffffffffffffffffffffffffffffff16905081600a60006101000a81548173ffffffffffffffffffffffffffffffffffffffff021916908373ffffffffffffffffffffffffffffffffffffffff1602179055508173ffffffffffffffffffffffffffffffffffffffff168173ffffffffffffffffffffffffffffffffffffffff167f8be0079c531659141344cd1fd0a4f28419497f9722a3daafe3b4186f6b6457e060405160405180910390a35050565b620001ed6200010f60201b60201c565b73ffffffffffffffffffffffffffffffffffffffff16620002136200028860201b60201c565b73ffffffffffffffffffffffffffffffffffffffff16146200026c576040517f08c379a0000000000000000000000000000000000000000000000000000000008152600401620002639062000440565b60405180910390fd5b80600d908051906020019062000284929190620002b2565b5050565b6000600a60009054906101000a900473ffffffffffffffffffffffffffffffffffffffff16905090565b828054620002c09062000508565b90600052602060002090601f016020900481019282620002e4576000855562000330565b82601f10620002ff57805160ff191683800117855562000330565b8280016001018555821562000330579182015b828111156200032f57825182559160200191906001019062000312565b5b5090506200033f919062000343565b5090565b5b808211156200035e57600081600090555060010162000344565b5090565b60006200037962000373846200048b565b62000462565b9050828152602081018484840111156200039257600080fd5b6200039f848285620004d2565b509392505050565b600082601f830112620003b957600080fd5b8151620003cb84826020860162000362565b91505092915050565b600060208284031215620003e757600080fd5b600082015167ffffffffffffffff8111156200040257600080fd5b6200041084828501620003a7565b91505092915050565b600062000428602083620004c1565b91506200043582620005e3565b602082019050919050565b600060208201905081810360008301526200045b8162000419565b9050919050565b60006200046e62000481565b90506200047c82826200053e565b919050565b6000604051905090565b600067ffffffffffffffff821115620004a957620004a8620005a3565b5b620004b482620005d2565b9050602081019050919050565b600082825260208201905092915050565b60005b83811015620004f2578082015181840152602081019050620004d5565b8381111562000502576000848401525b50505050565b600060028204905060018216806200052157607f821691505b6020821081141562000538576200053762000574565b5b50919050565b6200054982620005d2565b810181811067ffffffffffffffff821117156200056b576200056a620005a3565b5b80604052505050565b7f4e487b7100000000000000000000000000000000000000000000000000000000600052602260045260246000fd5b7f4e487b7100000000000000000000000000000000000000000000000000000000600052604160045260246000fd5b6000601f19601f8301169050919050565b7f4f776e61626c653a2063616c6c6572206973206e6f7420746865206f776e6572600082015250565b614613806200061c6000396000f3fe6080604052600436106101cd5760003560e01c80636352211e116100f7578063a22cb46511610095578063d547cfb711610064578063d547cfb714610680578063e985e9c5146106ab578063edec5f27146106e8578063f2fde38b14610711576101cd565b8063a22cb465146105c8578063b618e789146105f1578063b88d4fde1461061a578063c87b56dd14610643576101cd565b80638462151c116100d15780638462151c1461050a5780638d859f3e146105475780638da5cb5b1461057257806395d89b411461059d576101cd565b80636352211e1461047957806370a08231146104b6578063715018a6146104f3576101cd565b80632f745c591161016f5780633ccfd60b1161013e5780633ccfd60b146103e057806342842e0e146103ea5780634f6ccce71461041357806355f804b314610450576101cd565b80632f745c591461031f57806332cb6b0c1461035c5780633af32abf146103875780633b4b1381146103c4576101cd565b8063095ea7b3116101ab578063095ea7b31461027757806309d42b30146102a057806318160ddd146102cb57806323b872dd146102f6576101cd565b806301ffc9a7146101d257806306fdde031461020f578063081812fc1461023a575b600080fd5b3480156101de57600080fd5b506101f960048036038101906101f491906130c5565b61073a565b604051610206919061373f565b60405180910390f35b34801561021b57600080fd5b506102246107b4565b604051610231919061375a565b60405180910390f35b34801561024657600080fd5b50610261600480360381019061025c9190613158565b610846565b60405161026e91906136b6565b60405180910390f35b34801561028357600080fd5b5061029e60048036038101906102999190613048565b6108cb565b005b3480156102ac57600080fd5b506102b56109e3565b6040516102c29190613a7c565b60405180910390f35b3480156102d757600080fd5b506102e06109e8565b6040516102ed9190613a7c565b60405180910390f35b34801561030257600080fd5b5061031d60048036038101906103189190612f42565b6109f5565b005b34801561032b57600080fd5b5061034660048036038101906103419190613048565b610a55565b6040516103539190613a7c565b60405180910390f35b34801561036857600080fd5b50610371610afa565b60405161037e9190613a7c565b60405180910390f35b34801561039357600080fd5b506103ae60048036038101906103a99190612edd565b610b00565b6040516103bb919061373f565b60405180910390f35b6103de60048036038101906103d99190613158565b610b56565b005b6103e8610ca2565b005b3480156103f657600080fd5b50610411600480360381019061040c9190612f42565b610e16565b005b34801561041f57600080fd5b5061043a60048036038101906104359190613158565b610e36565b6040516104479190613a7c565b60405180910390f35b34801561045c57600080fd5b5061047760048036038101906104729190613117565b610ecd565b005b34801561048557600080fd5b506104a0600480360381019061049b9190613158565b610f63565b6040516104ad91906136b6565b60405180910390f35b3480156104c257600080fd5b506104dd60048036038101906104d89190612edd565b611015565b6040516104ea9190613a7c565b60405180910390f35b3480156104ff57600080fd5b506105086110cd565b005b34801561051657600080fd5b50610531600480360381019061052c9190612edd565b611155565b60405161053e919061371d565b60405180910390f35b34801561055357600080fd5b5061055c61124f565b6040516105699190613a7c565b60405180910390f35b34801561057e57600080fd5b5061058761125c565b60405161059491906136b6565b60405180910390f35b3480156105a957600080fd5b506105b2611286565b6040516105bf919061375a565b60405180910390f35b3480156105d457600080fd5b506105ef60048036038101906105ea919061300c565b611318565b005b3480156105fd57600080fd5b5061061860048036038101906106139190613181565b61132e565b005b34801561062657600080fd5b50610641600480360381019061063c9190612f91565b611499565b005b34801561064f57600080fd5b5061066a60048036038101906106659190613158565b6114fb565b604051610677919061375a565b60405180910390f35b34801561068c57600080fd5b506106956115a2565b6040516106a2919061375a565b60405180910390f35b3480156106b757600080fd5b506106d260048036038101906106cd9190612f06565b611630565b6040516106df919061373f565b60405180910390f35b3480156106f457600080fd5b5061070f600480360381019061070a9190613084565b6116c4565b005b34801561071d57600080fd5b5061073860048036038101906107339190612edd565b6117fb565b005b60007f780e9d63000000000000000000000000000000000000000000000000000000007bffffffffffffffffffffffffffffffffffffffffffffffffffffffff1916827bffffffffffffffffffffffffffffffffffffffffffffffffffffffff191614806107ad57506107ac826118f3565b5b9050919050565b6060600080546107c390613d9c565b80601f01602080910402602001604051908101604052809291908181526020018280546107ef90613d9c565b801561083c5780601f106108115761010080835404028352916020019161083c565b820191906000526020600020905b81548152906001019060200180831161081f57829003601f168201915b5050505050905090565b6000610851826119d5565b610890576040517f08c379a00000000000000000000000000000000000000000000000000000000081526004016108879061395c565b60405180910390fd5b6004600083815260200190815260200160002060009054906101000a900473ffffffffffffffffffffffffffffffffffffffff169050919050565b60006108d682610f63565b90508073ffffffffffffffffffffffffffffffffffffffff168373ffffffffffffffffffffffffffffffffffffffff161415610947576040517f08c379a000000000000000000000000000000000000000000000000000000000815260040161093e906139dc565b60405180910390fd5b8073ffffffffffffffffffffffffffffffffffffffff16610966611a41565b73ffffffffffffffffffffffffffffffffffffffff16148061099557506109948161098f611a41565b611630565b5b6109d4576040517f08c379a00000000000000000000000000000000000000000000000000000000081526004016109cb906138bc565b60405180910390fd5b6109de8383611a49565b505050565b600581565b6000600880549050905090565b610a06610a00611a41565b82611b02565b610a45576040517f08c379a0000000000000000000000000000000000000000000000000000000008152600401610a3c90613a1c565b60405180910390fd5b610a50838383611be0565b505050565b6000610a6083611015565b8210610aa1576040517f08c379a0000000000000000000000000000000000000000000000000000000008152600401610a989061377c565b60405180910390fd5b600660008473ffffffffffffffffffffffffffffffffffffffff1673ffffffffffffffffffffffffffffffffffffffff168152602001908152602001600020600083815260200190815260200160002054905092915050565b6103e781565b6000600b60008373ffffffffffffffffffffffffffffffffffffffff1673ffffffffffffffffffffffffffffffffffffffff16815260200190815260200160002060009054906101000a900460ff169050919050565b6000610b62600c611e3c565b90506103e7610b7a8383611e4a90919063ffffffff16565b1115610bbb576040517f08c379a0000000000000000000000000000000000000000000000000000000008152600401610bb29061385c565b60405180910390fd5b600082118015610bcc575060058211155b610c0b576040517f08c379a0000000000000000000000000000000000000000000000000000000008152600401610c029061387c565b60405180910390fd5b610c1433610b00565b610c7757610c34826801158e460913d00000611e6090919063ffffffff16565b341015610c76576040517f08c379a0000000000000000000000000000000000000000000000000000000008152600401610c6d9061383c565b60405180910390fd5b5b60005b82811015610c9d57610c8a611e76565b8080610c9590613dff565b915050610c7a565b505050565b610caa611a41565b73ffffffffffffffffffffffffffffffffffffffff16610cc861125c565b73ffffffffffffffffffffffffffffffffffffffff1614610d1e576040517f08c379a0000000000000000000000000000000000000000000000000000000008152600401610d159061397c565b60405180910390fd5b600047905060008111610d66576040517f08c379a0000000000000000000000000000000000000000000000000000000008152600401610d5d9061393c565b60405180910390fd5b60003373ffffffffffffffffffffffffffffffffffffffff1682604051610d8c906136a1565b60006040518083038185875af1925050503d8060008114610dc9576040519150601f19603f3d011682016040523d82523d6000602084013e610dce565b606091505b5050905080610e12576040517f08c379a0000000000000000000000000000000000000000000000000000000008152600401610e09906139fc565b60405180910390fd5b5050565b610e3183838360405180602001604052806000815250611499565b505050565b6000610e406109e8565b8210610e81576040517f08c379a0000000000000000000000000000000000000000000000000000000008152600401610e7890613a3c565b60405180910390fd5b60088281548110610ebb577f4e487b7100000000000000000000000000000000000000000000000000000000600052603260045260246000fd5b90600052602060002001549050919050565b610ed5611a41565b73ffffffffffffffffffffffffffffffffffffffff16610ef361125c565b73ffffffffffffffffffffffffffffffffffffffff1614610f49576040517f08c379a0000000000000000000000000000000000000000000000000000000008152600401610f409061397c565b60405180910390fd5b80600d9080519060200190610f5f929190612c6b565b5050565b6000806002600084815260200190815260200160002060009054906101000a900473ffffffffffffffffffffffffffffffffffffffff169050600073ffffffffffffffffffffffffffffffffffffffff168173ffffffffffffffffffffffffffffffffffffffff16141561100c576040517f08c379a0000000000000000000000000000000000000000000000000000000008152600401611003906138fc565b60405180910390fd5b80915050919050565b60008073ffffffffffffffffffffffffffffffffffffffff168273ffffffffffffffffffffffffffffffffffffffff161415611086576040517f08c379a000000000000000000000000000000000000000000000000000000000815260040161107d906138dc565b60405180910390fd5b600360008373ffffffffffffffffffffffffffffffffffffffff1673ffffffffffffffffffffffffffffffffffffffff168152602001908152602001600020549050919050565b6110d5611a41565b73ffffffffffffffffffffffffffffffffffffffff166110f361125c565b73ffffffffffffffffffffffffffffffffffffffff1614611149576040517f08c379a00000000000000000000000000000000000000000000000000000000081526004016111409061397c565b60405180910390fd5b6111536000611e9b565b565b6060600061116283611015565b905060008167ffffffffffffffff8111156111a6577f4e487b7100000000000000000000000000000000000000000000000000000000600052604160045260246000fd5b6040519080825280602002602001820160405280156111d45781602001602082028036833780820191505090505b50905060005b82811015611244576111ec8582610a55565b828281518110611225577f4e487b7100000000000000000000000000000000000000000000000000000000600052603260045260246000fd5b602002602001018181525050808061123c90613dff565b9150506111da565b508092505050919050565b6801158e460913d0000081565b6000600a60009054906101000a900473ffffffffffffffffffffffffffffffffffffffff16905090565b60606001805461129590613d9c565b80601f01602080910402602001604051908101604052809291908181526020018280546112c190613d9c565b801561130e5780601f106112e35761010080835404028352916020019161130e565b820191906000526020600020905b8154815290600101906020018083116112f157829003601f168201915b5050505050905090565b61132a611323611a41565b8383611f61565b5050565b611336611a41565b73ffffffffffffffffffffffffffffffffffffffff1661135461125c565b73ffffffffffffffffffffffffffffffffffffffff16146113aa576040517f08c379a00000000000000000000000000000000000000000000000000000000081526004016113a19061397c565b60405180910390fd5b60006113b6600c611e3c565b9050600083116113fb576040517f08c379a00000000000000000000000000000000000000000000000000000000081526004016113f290613a5c565b60405180910390fd5b6103e76114118483611e4a90919063ffffffff16565b1115611452576040517f08c379a00000000000000000000000000000000000000000000000000000000081526004016114499061385c565b60405180910390fd5b60005b83811015611493576000611469600c611e3c565b905061147584826120ce565b61147f600c6120ec565b50808061148b90613dff565b915050611455565b50505050565b6114aa6114a4611a41565b83611b02565b6114e9576040517f08c379a00000000000000000000000000000000000000000000000000000000081526004016114e090613a1c565b60405180910390fd5b6114f584848484612102565b50505050565b6060611506826119d5565b611545576040517f08c379a000000000000000000000000000000000000000000000000000000000815260040161153c906139bc565b60405180910390fd5b600061154f61215e565b9050600081511161156f576040518060200160405280600081525061159a565b80611579846121f0565b60405160200161158a92919061367d565b6040516020818303038152906040525b915050919050565b600d80546115af90613d9c565b80601f01602080910402602001604051908101604052809291908181526020018280546115db90613d9c565b80156116285780601f106115fd57610100808354040283529160200191611628565b820191906000526020600020905b81548152906001019060200180831161160b57829003601f168201915b505050505081565b6000600560008473ffffffffffffffffffffffffffffffffffffffff1673ffffffffffffffffffffffffffffffffffffffff16815260200190815260200160002060008373ffffffffffffffffffffffffffffffffffffffff1673ffffffffffffffffffffffffffffffffffffffff16815260200190815260200160002060009054906101000a900460ff16905092915050565b6116cc611a41565b73ffffffffffffffffffffffffffffffffffffffff166116ea61125c565b73ffffffffffffffffffffffffffffffffffffffff1614611740576040517f08c379a00000000000000000000000000000000000000000000000000000000081526004016117379061397c565b60405180910390fd5b60005b81518110156117f7576001600b600084848151811061178b577f4e487b7100000000000000000000000000000000000000000000000000000000600052603260045260246000fd5b602002602001015173ffffffffffffffffffffffffffffffffffffffff1673ffffffffffffffffffffffffffffffffffffffff16815260200190815260200160002060006101000a81548160ff02191690831515021790555080806117ef90613dff565b915050611743565b5050565b611803611a41565b73ffffffffffffffffffffffffffffffffffffffff1661182161125c565b73ffffffffffffffffffffffffffffffffffffffff1614611877576040517f08c379a000000000000000000000000000000000000000000000000000000000815260040161186e9061397c565b60405180910390fd5b600073ffffffffffffffffffffffffffffffffffffffff168173ffffffffffffffffffffffffffffffffffffffff1614156118e7576040517f08c379a00000000000000000000000000000000000000000000000000000000081526004016118de906137bc565b60405180910390fd5b6118f081611e9b565b50565b60007f80ac58cd000000000000000000000000000000000000000000000000000000007bffffffffffffffffffffffffffffffffffffffffffffffffffffffff1916827bffffffffffffffffffffffffffffffffffffffffffffffffffffffff191614806119be57507f5b5e139f000000000000000000000000000000000000000000000000000000007bffffffffffffffffffffffffffffffffffffffffffffffffffffffff1916827bffffffffffffffffffffffffffffffffffffffffffffffffffffffff1916145b806119ce57506119cd8261239d565b5b9050919050565b60008073ffffffffffffffffffffffffffffffffffffffff166002600084815260200190815260200160002060009054906101000a900473ffffffffffffffffffffffffffffffffffffffff1673ffffffffffffffffffffffffffffffffffffffff1614159050919050565b600033905090565b816004600083815260200190815260200160002060006101000a81548173ffffffffffffffffffffffffffffffffffffffff021916908373ffffffffffffffffffffffffffffffffffffffff160217905550808273ffffffffffffffffffffffffffffffffffffffff16611abc83610f63565b73ffffffffffffffffffffffffffffffffffffffff167f8c5be1e5ebec7d5bd14f71427d1e84f3dd0314c0f7b2291e5b200ac8c7c3b92560405160405180910390a45050565b6000611b0d826119d5565b611b4c576040517f08c379a0000000000000000000000000000000000000000000000000000000008152600401611b439061389c565b60405180910390fd5b6000611b5783610f63565b90508073ffffffffffffffffffffffffffffffffffffffff168473ffffffffffffffffffffffffffffffffffffffff161480611bc657508373ffffffffffffffffffffffffffffffffffffffff16611bae84610846565b73ffffffffffffffffffffffffffffffffffffffff16145b80611bd75750611bd68185611630565b5b91505092915050565b8273ffffffffffffffffffffffffffffffffffffffff16611c0082610f63565b73ffffffffffffffffffffffffffffffffffffffff1614611c56576040517f08c379a0000000000000000000000000000000000000000000000000000000008152600401611c4d9061399c565b60405180910390fd5b600073ffffffffffffffffffffffffffffffffffffffff168273ffffffffffffffffffffffffffffffffffffffff161415611cc6576040517f08c379a0000000000000000000000000000000000000000000000000000000008152600401611cbd906137fc565b60405180910390fd5b611cd1838383612407565b611cdc600082611a49565b6001600360008573ffffffffffffffffffffffffffffffffffffffff1673ffffffffffffffffffffffffffffffffffffffff1681526020019081526020016000206000828254611d2c9190613cb2565b925050819055506001600360008473ffffffffffffffffffffffffffffffffffffffff1673ffffffffffffffffffffffffffffffffffffffff1681526020019081526020016000206000828254611d839190613bd1565b92505081905550816002600083815260200190815260200160002060006101000a81548173ffffffffffffffffffffffffffffffffffffffff021916908373ffffffffffffffffffffffffffffffffffffffff160217905550808273ffffffffffffffffffffffffffffffffffffffff168473ffffffffffffffffffffffffffffffffffffffff167fddf252ad1be2c89b69c2b068fc378daa952ba7f163c4a11628f55a4df523b3ef60405160405180910390a4505050565b600081600001549050919050565b60008183611e589190613bd1565b905092915050565b60008183611e6e9190613c58565b905092915050565b6000611e82600c611e3c565b9050611e8e33826120ce565b611e98600c6120ec565b50565b6000600a60009054906101000a900473ffffffffffffffffffffffffffffffffffffffff16905081600a60006101000a81548173ffffffffffffffffffffffffffffffffffffffff021916908373ffffffffffffffffffffffffffffffffffffffff1602179055508173ffffffffffffffffffffffffffffffffffffffff168173ffffffffffffffffffffffffffffffffffffffff167f8be0079c531659141344cd1fd0a4f28419497f9722a3daafe3b4186f6b6457e060405160405180910390a35050565b8173ffffffffffffffffffffffffffffffffffffffff168373ffffffffffffffffffffffffffffffffffffffff161415611fd0576040517f08c379a0000000000000000000000000000000000000000000000000000000008152600401611fc79061381c565b60405180910390fd5b80600560008573ffffffffffffffffffffffffffffffffffffffff1673ffffffffffffffffffffffffffffffffffffffff16815260200190815260200160002060008473ffffffffffffffffffffffffffffffffffffffff1673ffffffffffffffffffffffffffffffffffffffff16815260200190815260200160002060006101000a81548160ff0219169083151502179055508173ffffffffffffffffffffffffffffffffffffffff168373ffffffffffffffffffffffffffffffffffffffff167f17307eab39ab6107e8899845ad3d59bd9653f200f220920489ca2b5937696c31836040516120c1919061373f565b60405180910390a3505050565b6120e882826040518060200160405280600081525061251b565b5050565b6001816000016000828254019250508190555050565b61210d848484611be0565b61211984848484612576565b612158576040517f08c379a000000000000000000000000000000000000000000000000000000000815260040161214f9061379c565b60405180910390fd5b50505050565b6060600d805461216d90613d9c565b80601f016020809104026020016040519081016040528092919081815260200182805461219990613d9c565b80156121e65780601f106121bb576101008083540402835291602001916121e6565b820191906000526020600020905b8154815290600101906020018083116121c957829003601f168201915b5050505050905090565b60606000821415612238576040518060400160405280600181526020017f30000000000000000000000000000000000000000000000000000000000000008152509050612398565b600082905060005b6000821461226a57808061225390613dff565b915050600a826122639190613c27565b9150612240565b60008167ffffffffffffffff8111156122ac577f4e487b7100000000000000000000000000000000000000000000000000000000600052604160045260246000fd5b6040519080825280601f01601f1916602001820160405280156122de5781602001600182028036833780820191505090505b5090505b60008514612391576001826122f79190613cb2565b9150600a856123069190613e48565b60306123129190613bd1565b60f81b81838151811061234e577f4e487b7100000000000000000000000000000000000000000000000000000000600052603260045260246000fd5b60200101907effffffffffffffffffffffffffffffffffffffffffffffffffffffffffffff1916908160001a905350600a8561238a9190613c27565b94506122e2565b8093505050505b919050565b60007f01ffc9a7000000000000000000000000000000000000000000000000000000007bffffffffffffffffffffffffffffffffffffffffffffffffffffffff1916827bffffffffffffffffffffffffffffffffffffffffffffffffffffffff1916149050919050565b61241283838361270d565b600073ffffffffffffffffffffffffffffffffffffffff168373ffffffffffffffffffffffffffffffffffffffff1614156124555761245081612712565b612494565b8173ffffffffffffffffffffffffffffffffffffffff168373ffffffffffffffffffffffffffffffffffffffff161461249357612492838261275b565b5b5b600073ffffffffffffffffffffffffffffffffffffffff168273ffffffffffffffffffffffffffffffffffffffff1614156124d7576124d2816128c8565b612516565b8273ffffffffffffffffffffffffffffffffffffffff168273ffffffffffffffffffffffffffffffffffffffff1614612515576125148282612a0b565b5b5b505050565b6125258383612a8a565b6125326000848484612576565b612571576040517f08c379a00000000000000000000000000000000000000000000000000000000081526004016125689061379c565b60405180910390fd5b505050565b60006125978473ffffffffffffffffffffffffffffffffffffffff16612c58565b15612700578373ffffffffffffffffffffffffffffffffffffffff1663150b7a026125c0611a41565b8786866040518563ffffffff1660e01b81526004016125e294939291906136d1565b602060405180830381600087803b1580156125fc57600080fd5b505af192505050801561262d57506040513d601f19601f8201168201806040525081019061262a91906130ee565b60015b6126b0573d806000811461265d576040519150601f19603f3d011682016040523d82523d6000602084013e612662565b606091505b506000815114156126a8576040517f08c379a000000000000000000000000000000000000000000000000000000000815260040161269f9061379c565b60405180910390fd5b805181602001fd5b63150b7a0260e01b7bffffffffffffffffffffffffffffffffffffffffffffffffffffffff1916817bffffffffffffffffffffffffffffffffffffffffffffffffffffffff191614915050612705565b600190505b949350505050565b505050565b6008805490506009600083815260200190815260200160002081905550600881908060018154018082558091505060019003906000526020600020016000909190919091505550565b6000600161276884611015565b6127729190613cb2565b9050600060076000848152602001908152602001600020549050818114612857576000600660008673ffffffffffffffffffffffffffffffffffffffff1673ffffffffffffffffffffffffffffffffffffffff168152602001908152602001600020600084815260200190815260200160002054905080600660008773ffffffffffffffffffffffffffffffffffffffff1673ffffffffffffffffffffffffffffffffffffffff168152602001908152602001600020600084815260200190815260200160002081905550816007600083815260200190815260200160002081905550505b6007600084815260200190815260200160002060009055600660008573ffffffffffffffffffffffffffffffffffffffff1673ffffffffffffffffffffffffffffffffffffffff16815260200190815260200160002060008381526020019081526020016000206000905550505050565b600060016008805490506128dc9190613cb2565b9050600060096000848152602001908152602001600020549050600060088381548110612932577f4e487b7100000000000000000000000000000000000000000000000000000000600052603260045260246000fd5b90600052602060002001549050806008838154811061297a577f4e487b7100000000000000000000000000000000000000000000000000000000600052603260045260246000fd5b9060005260206000200181905550816009600083815260200190815260200160002081905550600960008581526020019081526020016000206000905560088054806129ef577f4e487b7100000000000000000000000000000000000000000000000000000000600052603160045260246000fd5b6001900381819060005260206000200160009055905550505050565b6000612a1683611015565b905081600660008573ffffffffffffffffffffffffffffffffffffffff1673ffffffffffffffffffffffffffffffffffffffff168152602001908152602001600020600083815260200190815260200160002081905550806007600084815260200190815260200160002081905550505050565b600073ffffffffffffffffffffffffffffffffffffffff168273ffffffffffffffffffffffffffffffffffffffff161415612afa576040517f08c379a0000000000000000000000000000000000000000000000000000000008152600401612af19061391c565b60405180910390fd5b612b03816119d5565b15612b43576040517f08c379a0000000000000000000000000000000000000000000000000000000008152600401612b3a906137dc565b60405180910390fd5b612b4f60008383612407565b6001600360008473ffffffffffffffffffffffffffffffffffffffff1673ffffffffffffffffffffffffffffffffffffffff1681526020019081526020016000206000828254612b9f9190613bd1565b92505081905550816002600083815260200190815260200160002060006101000a81548173ffffffffffffffffffffffffffffffffffffffff021916908373ffffffffffffffffffffffffffffffffffffffff160217905550808273ffffffffffffffffffffffffffffffffffffffff16600073ffffffffffffffffffffffffffffffffffffffff167fddf252ad1be2c89b69c2b068fc378daa952ba7f163c4a11628f55a4df523b3ef60405160405180910390a45050565b600080823b905060008111915050919050565b828054612c7790613d9c565b90600052602060002090601f016020900481019282612c995760008555612ce0565b82601f10612cb257805160ff1916838001178555612ce0565b82800160010185558215612ce0579182015b82811115612cdf578251825591602001919060010190612cc4565b5b509050612ced9190612cf1565b5090565b5b80821115612d0a576000816000905550600101612cf2565b5090565b6000612d21612d1c84613abc565b613a97565b90508083825260208201905082856020860282011115612d4057600080fd5b60005b85811015612d705781612d568882612df6565b845260208401935060208301925050600181019050612d43565b5050509392505050565b6000612d8d612d8884613ae8565b613a97565b905082815260208101848484011115612da557600080fd5b612db0848285613d5a565b509392505050565b6000612dcb612dc684613b19565b613a97565b905082815260208101848484011115612de357600080fd5b612dee848285613d5a565b509392505050565b600081359050612e0581614581565b92915050565b600082601f830112612e1c57600080fd5b8135612e2c848260208601612d0e565b91505092915050565b600081359050612e4481614598565b92915050565b600081359050612e59816145af565b92915050565b600081519050612e6e816145af565b92915050565b600082601f830112612e8557600080fd5b8135612e95848260208601612d7a565b91505092915050565b600082601f830112612eaf57600080fd5b8135612ebf848260208601612db8565b91505092915050565b600081359050612ed7816145c6565b92915050565b600060208284031215612eef57600080fd5b6000612efd84828501612df6565b91505092915050565b60008060408385031215612f1957600080fd5b6000612f2785828601612df6565b9250506020612f3885828601612df6565b9150509250929050565b600080600060608486031215612f5757600080fd5b6000612f6586828701612df6565b9350506020612f7686828701612df6565b9250506040612f8786828701612ec8565b9150509250925092565b60008060008060808587031215612fa757600080fd5b6000612fb587828801612df6565b9450506020612fc687828801612df6565b9350506040612fd787828801612ec8565b925050606085013567ffffffffffffffff811115612ff457600080fd5b61300087828801612e74565b91505092959194509250565b6000806040838503121561301f57600080fd5b600061302d85828601612df6565b925050602061303e85828601612e35565b9150509250929050565b6000806040838503121561305b57600080fd5b600061306985828601612df6565b925050602061307a85828601612ec8565b9150509250929050565b60006020828403121561309657600080fd5b600082013567ffffffffffffffff8111156130b057600080fd5b6130bc84828501612e0b565b91505092915050565b6000602082840312156130d757600080fd5b60006130e584828501612e4a565b91505092915050565b60006020828403121561310057600080fd5b600061310e84828501612e5f565b91505092915050565b60006020828403121561312957600080fd5b600082013567ffffffffffffffff81111561314357600080fd5b61314f84828501612e9e565b91505092915050565b60006020828403121561316a57600080fd5b600061317884828501612ec8565b91505092915050565b6000806040838503121561319457600080fd5b60006131a285828601612ec8565b92505060206131b385828601612df6565b9150509250929050565b60006131c9838361365f565b60208301905092915050565b6131de81613ce6565b82525050565b60006131ef82613b5a565b6131f98185613b88565b935061320483613b4a565b8060005b8381101561323557815161321c88826131bd565b975061322783613b7b565b925050600181019050613208565b5085935050505092915050565b61324b81613cf8565b82525050565b600061325c82613b65565b6132668185613b99565b9350613276818560208601613d69565b61327f81613f35565b840191505092915050565b600061329582613b70565b61329f8185613bb5565b93506132af818560208601613d69565b6132b881613f35565b840191505092915050565b60006132ce82613b70565b6132d88185613bc6565b93506132e8818560208601613d69565b80840191505092915050565b6000613301602b83613bb5565b915061330c82613f46565b604082019050919050565b6000613324603283613bb5565b915061332f82613f95565b604082019050919050565b6000613347602683613bb5565b915061335282613fe4565b604082019050919050565b600061336a601c83613bb5565b915061337582614033565b602082019050919050565b600061338d602483613bb5565b91506133988261405c565b604082019050919050565b60006133b0601983613bb5565b91506133bb826140ab565b602082019050919050565b60006133d3602283613bb5565b91506133de826140d4565b604082019050919050565b60006133f6601583613bb5565b915061340182614123565b602082019050919050565b6000613419602583613bb5565b91506134248261414c565b604082019050919050565b600061343c602c83613bb5565b91506134478261419b565b604082019050919050565b600061345f603883613bb5565b915061346a826141ea565b604082019050919050565b6000613482602a83613bb5565b915061348d82614239565b604082019050919050565b60006134a5602983613bb5565b91506134b082614288565b604082019050919050565b60006134c8602083613bb5565b91506134d3826142d7565b602082019050919050565b60006134eb601983613bb5565b91506134f682614300565b602082019050919050565b600061350e602c83613bb5565b915061351982614329565b604082019050919050565b6000613531602083613bb5565b915061353c82614378565b602082019050919050565b6000613554602983613bb5565b915061355f826143a1565b604082019050919050565b6000613577602f83613bb5565b9150613582826143f0565b604082019050919050565b600061359a602183613bb5565b91506135a58261443f565b604082019050919050565b60006135bd600083613baa565b91506135c88261448e565b600082019050919050565b60006135e0601083613bb5565b91506135eb82614491565b602082019050919050565b6000613603603183613bb5565b915061360e826144ba565b604082019050919050565b6000613626602c83613bb5565b915061363182614509565b604082019050919050565b6000613649601b83613bb5565b915061365482614558565b602082019050919050565b61366881613d50565b82525050565b61367781613d50565b82525050565b600061368982856132c3565b915061369582846132c3565b91508190509392505050565b60006136ac826135b0565b9150819050919050565b60006020820190506136cb60008301846131d5565b92915050565b60006080820190506136e660008301876131d5565b6136f360208301866131d5565b613700604083018561366e565b81810360608301526137128184613251565b905095945050505050565b6000602082019050818103600083015261373781846131e4565b905092915050565b60006020820190506137546000830184613242565b92915050565b60006020820190508181036000830152613774818461328a565b905092915050565b60006020820190508181036000830152613795816132f4565b9050919050565b600060208201905081810360008301526137b581613317565b9050919050565b600060208201905081810360008301526137d58161333a565b9050919050565b600060208201905081810360008301526137f58161335d565b9050919050565b6000602082019050818103600083015261381581613380565b9050919050565b60006020820190508181036000830152613835816133a3565b9050919050565b60006020820190508181036000830152613855816133c6565b9050919050565b60006020820190508181036000830152613875816133e9565b9050919050565b600060208201905081810360008301526138958161340c565b9050919050565b600060208201905081810360008301526138b58161342f565b9050919050565b600060208201905081810360008301526138d581613452565b9050919050565b600060208201905081810360008301526138f581613475565b9050919050565b6000602082019050818103600083015261391581613498565b9050919050565b60006020820190508181036000830152613935816134bb565b9050919050565b60006020820190508181036000830152613955816134de565b9050919050565b6000602082019050818103600083015261397581613501565b9050919050565b6000602082019050818103600083015261399581613524565b9050919050565b600060208201905081810360008301526139b581613547565b9050919050565b600060208201905081810360008301526139d58161356a565b9050919050565b600060208201905081810360008301526139f58161358d565b9050919050565b60006020820190508181036000830152613a15816135d3565b9050919050565b60006020820190508181036000830152613a35816135f6565b9050919050565b60006020820190508181036000830152613a5581613619565b9050919050565b60006020820190508181036000830152613a758161363c565b9050919050565b6000602082019050613a91600083018461366e565b92915050565b6000613aa1613ab2565b9050613aad8282613dce565b919050565b6000604051905090565b600067ffffffffffffffff821115613ad757613ad6613f06565b5b602082029050602081019050919050565b600067ffffffffffffffff821115613b0357613b02613f06565b5b613b0c82613f35565b9050602081019050919050565b600067ffffffffffffffff821115613b3457613b33613f06565b5b613b3d82613f35565b9050602081019050919050565b6000819050602082019050919050565b600081519050919050565b600081519050919050565b600081519050919050565b6000602082019050919050565b600082825260208201905092915050565b600082825260208201905092915050565b600081905092915050565b600082825260208201905092915050565b600081905092915050565b6000613bdc82613d50565b9150613be783613d50565b9250827fffffffffffffffffffffffffffffffffffffffffffffffffffffffffffffffff03821115613c1c57613c1b613e79565b5b828201905092915050565b6000613c3282613d50565b9150613c3d83613d50565b925082613c4d57613c4c613ea8565b5b828204905092915050565b6000613c6382613d50565b9150613c6e83613d50565b9250817fffffffffffffffffffffffffffffffffffffffffffffffffffffffffffffffff0483118215151615613ca757613ca6613e79565b5b828202905092915050565b6000613cbd82613d50565b9150613cc883613d50565b925082821015613cdb57613cda613e79565b5b828203905092915050565b6000613cf182613d30565b9050919050565b60008115159050919050565b60007fffffffff0000000000000000000000000000000000000000000000000000000082169050919050565b600073ffffffffffffffffffffffffffffffffffffffff82169050919050565b6000819050919050565b82818337600083830152505050565b60005b83811015613d87578082015181840152602081019050613d6c565b83811115613d96576000848401525b50505050565b60006002820490506001821680613db457607f821691505b60208210811415613dc857613dc7613ed7565b5b50919050565b613dd782613f35565b810181811067ffffffffffffffff82111715613df657613df5613f06565b5b80604052505050565b6000613e0a82613d50565b91507fffffffffffffffffffffffffffffffffffffffffffffffffffffffffffffffff821415613e3d57613e3c613e79565b5b600182019050919050565b6000613e5382613d50565b9150613e5e83613d50565b925082613e6e57613e6d613ea8565b5b828206905092915050565b7f4e487b7100000000000000000000000000000000000000000000000000000000600052601160045260246000fd5b7f4e487b7100000000000000000000000000000000000000000000000000000000600052601260045260246000fd5b7f4e487b7100000000000000000000000000000000000000000000000000000000600052602260045260246000fd5b7f4e487b7100000000000000000000000000000000000000000000000000000000600052604160045260246000fd5b6000601f19601f8301169050919050565b7f455243373231456e756d657261626c653a206f776e657220696e646578206f7560008201527f74206f6620626f756e6473000000000000000000000000000000000000000000602082015250565b7f4552433732313a207472616e7366657220746f206e6f6e20455243373231526560008201527f63656976657220696d706c656d656e7465720000000000000000000000000000602082015250565b7f4f776e61626c653a206e6577206f776e657220697320746865207a65726f206160008201527f6464726573730000000000000000000000000000000000000000000000000000602082015250565b7f4552433732313a20746f6b656e20616c7265616479206d696e74656400000000600082015250565b7f4552433732313a207472616e7366657220746f20746865207a65726f2061646460008201527f7265737300000000000000000000000000000000000000000000000000000000602082015250565b7f4552433732313a20617070726f766520746f2063616c6c657200000000000000600082015250565b7f4e6f7420656e6f75676820657468657220746f207075726368617365204e465460008201527f732e000000000000000000000000000000000000000000000000000000000000602082015250565b7f4e6f7420656e6f756768204e465473206c656674210000000000000000000000600082015250565b7f43616e6e6f74206d696e7420737065636966696564206e756d626572206f662060008201527f4e4654732e000000000000000000000000000000000000000000000000000000602082015250565b7f4552433732313a206f70657261746f7220717565727920666f72206e6f6e657860008201527f697374656e7420746f6b656e0000000000000000000000000000000000000000602082015250565b7f4552433732313a20617070726f76652063616c6c6572206973206e6f74206f7760008201527f6e6572206e6f7220617070726f76656420666f7220616c6c0000000000000000602082015250565b7f4552433732313a2062616c616e636520717565727920666f7220746865207a6560008201527f726f206164647265737300000000000000000000000000000000000000000000602082015250565b7f4552433732313a206f776e657220717565727920666f72206e6f6e657869737460008201527f656e7420746f6b656e0000000000000000000000000000000000000000000000602082015250565b7f4552433732313a206d696e7420746f20746865207a65726f2061646472657373600082015250565b7f4e6f206574686572206c65667420746f20776974686472617700000000000000600082015250565b7f4552433732313a20617070726f76656420717565727920666f72206e6f6e657860008201527f697374656e7420746f6b656e0000000000000000000000000000000000000000602082015250565b7f4f776e61626c653a2063616c6c6572206973206e6f7420746865206f776e6572600082015250565b7f4552433732313a207472616e73666572206f6620746f6b656e2074686174206960008201527f73206e6f74206f776e0000000000000000000000000000000000000000000000602082015250565b7f4552433732314d657461646174613a2055524920717565727920666f72206e6f60008201527f6e6578697374656e7420746f6b656e0000000000000000000000000000000000602082015250565b7f4552433732313a20617070726f76616c20746f2063757272656e74206f776e6560008201527f7200000000000000000000000000000000000000000000000000000000000000602082015250565b50565b7f5472616e73666572206661696c65642e00000000000000000000000000000000600082015250565b7f4552433732313a207472616e736665722063616c6c6572206973206e6f74206f60008201527f776e6572206e6f7220617070726f766564000000000000000000000000000000602082015250565b7f455243373231456e756d657261626c653a20676c6f62616c20696e646578206f60008201527f7574206f6620626f756e64730000000000000000000000000000000000000000602082015250565b7f6e65656420746f206d696e74206174206c656173742031204e46540000000000600082015250565b61458a81613ce6565b811461459557600080fd5b50565b6145a181613cf8565b81146145ac57600080fd5b50565b6145b881613d04565b81146145c357600080fd5b50565b6145cf81613d50565b81146145da57600080fd5b5056fea26469706673582212209f810442c2aab10f3791ace5124cf8d586a0bcf476b9fbff71eff87c4c8316d364736f6c63430008040033",
  "linkReferences": {},
  "deployedLinkReferences": {}
}